:0400000080313028F3
:100008007E14803120007F08F1000B1F1428210086
:10001800111E14282000111E14288231322280312A
:100028002000111C2C281110F83097002F30960052
:1000380051085204031924280130D1020030D23B60
:100048004F08500403192C280130CF020030D03B50
:100058007108FF007E100900803132288630840044
:1000680082308500533086000030870009308231A5
:1000780097228031FA01FB013B3084000030850073
:10008800183082319D228031A030840000308500F4
:10009800403082319D227E1020008231632A200068
:1000A80051085204031D08000530D1000030D20069
:1000B80022001708FC3902389700F3309705971289
:1000C80097171A302000A400F830890B6928A40B70
:1000D800692800002200171F6E2821009D130F3089
:1000E8009F049E171E088F3960389E001E1103302A
:1000F8009E049D132000BA0109303A020318080033
:100108003A08533E860087010108A400A40DA40DF7
:1001180021001D08200024068339240621009D00A3
:100128000D30890B9528000021001D149D149D1881
:100138009B2820003A35283E8600870121001B08AD
:10014800C03F1C08C13F20003A353B3E860087016E
:100158001030F2000030F3003A353B3E8400850150
:10016800003FA400013FA500A409A509A40A03199A
:10017800A50A3A35283E84008501003F2407F4008B
:10018800013F253DF50081315D218031403F7207F7
:100198002000A600413F733DA7003A353B3E86004C
:1001A80087012608C03F2708C13F3A353B3E8600F5
:1001B80087014131811FE7283A353B3E8600870198
:1001C8000030C03FC13F0130A4002408BA0780288E
:1001D80022008C018D018E010830210090008C01D5
:1001E8008D0140308E00BF3023008E007F308D009F
:1001F800BF308C00240090018D018C018E012100FC
:10020800951722009D019C0124008C018D018E010F
:10021800210095138C018D018E010E138E1723007A
:100228008C018D018E0121000D148D140D158D1575
:100238000D168C168C150C158C1423000D148D14AA
:100248000D158D158E168C168C150C158C1420001A
:100258008C018D018E018B012100960164001630FE
:1002680021009700F830200097002F309600980161
:10027800210011142000181421009E138F309E05B0
:10028800FC309E050F309F0522001708FC39023804
:100298009700F330970597122300971421009E13B7
:1002A8008F309E051E11FC309E058B170B171114FD
:1002B80008002000A101F31F6829F209F309F20AD6
:1002C8000319F30AA101A10AF51F7329F409F50915
:1002D800F40A0319F50A0130F6007608A106A2010E
:1002E800A301720873040319A229A001A00AF31B31
:1002F80087290130F235F30D890B7E290130F6008C
:100308007608A0077B290130A235A30D890B88291F
:1003180073087502031D922972087402031C992937
:100328007208F4027308F53B22140130F336F20C1C
:10033800890B9A290130A002031D87292108031976
:10034800AA29A209A309A20A0319A30A2308F300E8
:100358002208F20008002000A401A5014F0850045B
:10036800031D08006430CF000030D000A60109301A
:1003780026020318D32926353B3E86008701403FD5
:10038800A200413FA3002208A4062308A5060130C5
:10039800A2002208A60709302602031CBF29250847
:1003A800CE002408CD007B30F5008230F600823183
:1003B800152281312000A6011430260203180800F6
:1003C80026083B3E8600870101088131F2218131F0
:1003D80001302000A2002208A607E029F30020002F
:1003E8005C080319F3292100111AFE297308230058
:1003F8009A00122A11127308F2007B08A03E8600A8
:100408008701720881000130F2007208FB07403052
:100418007B020318FB0101302000DC0221001116C9
:1004280008007730F70077082000A0007608F80069
:100438007508F700F50A0319F60A770884007808A2
:1004480085000008F90079082000A1002108031997
:10045800080021088231A32282311A2A4030200064
:100468005C0203184C2A7A08A03E8600870101081E
:1004780023009A000130F0007008FA0740307A0231
:100488000318FA010130F00070082000DC070800AA
:1004980021001112080021001112083023009F00CA
:1004A80080309D0024309E0022309B009C01FB017F
:1004B800FA014030F20072082000DC0008008231A6
:1004C8006F2282318B170B17803153208231813193
:1004D800AF218231682A8031EC20823182318F222B
:1004E80082318231A822823182314F2208004C3475
:1004F80045344334543455345234413453343A3403
:100508002034003404340334023401340C340A3403
:10051800083409340B347230210099009A0198018B
:10052800220096010800FE0012001E00FE0B982A09
:100538000034640080010131890B9E2A0034F400E4
:1005480074088131F2210800163021009700080054
:020000040001F9
:04000E00E4FFFFFF0D
:00000001FF
